S01F000044656275675C73746D385F66616E636F6E74726F6C6C65722E736D38F3
S1238083AE07FF9490CE8080AE8082F62725A5602717BF00EE03BF03BE00EE0190F6F75C06
S12380A3905C90B30326F5BE00909390EE031C000520D8AE00002002F75CA3000626F9AE58
S12380C301002002F75CA3010026F9CD80D320FEAE5000CD80F14BC04B20AE5000CD80F92C
S12380E3854B004B20AE5000CD81818520F36F047F6F026F0381897B0543E404E7047B06E3
S1238103A580271D7B06A5102706F61A05F720071E017B0543F4F71E01E6021A05E702205D
S1238123091E017B0543E402E7027B06A540270A1E01E6031A05E70320091E017B0543E4E7
S123814303E7037B06A520270A1E01E6041A05E70420091E017B0543E404E7048581890D27
S1238163062708E6031A05E70320091E017B0543E403E7038581897B051E01F78581890D34
S1238183062706F61A05F720071E017B0543F4F7858189F61A05F78581897B0543F4F78548
S11E81A38189F61805F78581E60181F68189E6011405858189F6140585818017
S123800082008083820081BD820081BD820081BD820081BD820081BD820081BD820081BD97
S1238020820081BD820081BD820081BD820081BD820081BD820081BD820081BD820081BD3C
S1238040820081BD820081BD820081BD820081BD820081BD820081BD820081BD820081BD1C
S1238060820081BD820081BD820081BD820081BD820081BD820081BD820081BD820081BDFC
S1068080808300F6
S903FFFFFE
